{
  "contractName": "TokenFarm",
  "abi": [
    {
      "inputs": [
        {
          "internalType": "contract DToken",
          "name": "_dToken",
          "type": "address"
        },
        {
          "internalType": "contract DaiToken",
          "name": "_daiToken",
          "type": "address"
        }
      ],
      "stateMutability": "nonpayable",
      "type": "constructor"
    },
    {
      "inputs": [],
      "name": "dToken",
      "outputs": [
        {
          "internalType": "contract DToken",
          "name": "",
          "type": "address"
        }
      ],
      "stateMutability": "view",
      "type": "function",
      "constant": true
    },
    {
      "inputs": [],
      "name": "daiToken",
      "outputs": [
        {
          "internalType": "contract DaiToken",
          "name": "",
          "type": "address"
        }
      ],
      "stateMutability": "view",
      "type": "function",
      "constant": true
    },
    {
      "inputs": [
        {
          "internalType": "address",
          "name": "",
          "type": "address"
        }
      ],
      "name": "hasStaked",
      "outputs": [
        {
          "internalType": "bool",
          "name": "",
          "type": "bool"
        }
      ],
      "stateMutability": "view",
      "type": "function",
      "constant": true
    },
    {
      "inputs": [
        {
          "internalType": "address",
          "name": "",
          "type": "address"
        }
      ],
      "name": "isStaking",
      "outputs": [
        {
          "internalType": "bool",
          "name": "",
          "type": "bool"
        }
      ],
      "stateMutability": "view",
      "type": "function",
      "constant": true
    },
    {
      "inputs": [],
      "name": "name",
      "outputs": [
        {
          "internalType": "string",
          "name": "",
          "type": "string"
        }
      ],
      "stateMutability": "view",
      "type": "function",
      "constant": true
    },
    {
      "inputs": [],
      "name": "owner",
      "outputs": [
        {
          "internalType": "address",
          "name": "",
          "type": "address"
        }
      ],
      "stateMutability": "view",
      "type": "function",
      "constant": true
    },
    {
      "inputs": [
        {
          "internalType": "uint256",
          "name": "",
          "type": "uint256"
        }
      ],
      "name": "stakers",
      "outputs": [
        {
          "internalType": "address",
          "name": "",
          "type": "address"
        }
      ],
      "stateMutability": "view",
      "type": "function",
      "constant": true
    },
    {
      "inputs": [
        {
          "internalType": "address",
          "name": "",
          "type": "address"
        }
      ],
      "name": "stakingBalance",
      "outputs": [
        {
          "internalType": "uint256",
          "name": "",
          "type": "uint256"
        }
      ],
      "stateMutability": "view",
      "type": "function",
      "constant": true
    },
    {
      "inputs": [
        {
          "internalType": "uint256",
          "name": "_amount",
          "type": "uint256"
        }
      ],
      "name": "stakeTokens",
      "outputs": [],
      "stateMutability": "nonpayable",
      "type": "function"
    },
    {
      "inputs": [],
      "name": "issueTokens",
      "outputs": [],
      "stateMutability": "nonpayable",
      "type": "function"
    },
    {
      "inputs": [],
      "name": "unstakeTokens",
      "outputs": [],
      "stateMutability": "nonpayable",
      "type": "function"
    }
  ],
  "bytecode": "0x60806040526040518060400160405280600c81526020017f4420546f6b656e204661726d0000000000000000000000000000000000000000815250600090805190602001906200005192919062000150565b503480156200005f57600080fd5b5060405162001427380380620014278339818101604052810190620000859190620002c3565b81600260006101000a81548173ffffffffffffffffffffffffffffffffffffffff021916908373ffffffffffffffffffffffffffffffffffffffff16021790555080600360006101000a81548173ffffffffffffffffffffffffffffffffffffffff021916908373ffffffffffffffffffffffffffffffffffffffff16021790555033600160006101000a81548173ffffffffffffffffffffffffffffffffffffffff021916908373ffffffffffffffffffffffffffffffffffffffff16021790555050506200036f565b8280546200015e9062000339565b90600052602060002090601f016020900481019282620001825760008555620001ce565b82601f106200019d57805160ff1916838001178555620001ce565b82800160010185558215620001ce579182015b82811115620001cd578251825591602001919060010190620001b0565b5b509050620001dd9190620001e1565b5090565b5b80821115620001fc576000816000905550600101620001e2565b5090565b600080fd5b600073ffffffffffffffffffffffffffffffffffffffff82169050919050565b6000620002328262000205565b9050919050565b6000620002468262000225565b9050919050565b620002588162000239565b81146200026457600080fd5b50565b60008151905062000278816200024d565b92915050565b60006200028b8262000225565b9050919050565b6200029d816200027e565b8114620002a957600080fd5b50565b600081519050620002bd8162000292565b92915050565b60008060408385031215620002dd57620002dc62000200565b5b6000620002ed8582860162000267565b92505060206200030085828601620002ac565b9150509250929050565b7f4e487b7100000000000000000000000000000000000000000000000000000000600052602260045260246000fd5b600060028204905060018216806200035257607f821691505b602082108114156200036957620003686200030a565b5b50919050565b6110a8806200037f6000396000f3fe608060405234801561001057600080fd5b50600436106100a95760003560e01c80638da5cb5b116100715780638da5cb5b14610152578063a5ce413b14610170578063be22f5461461017a578063c93c8f3414610198578063d9d7858a146101c8578063fd5e6dd1146101e6576100a9565b806306fdde03146100ae57806345bc78ab146100cc57806360ab5852146100fc5780636f49712b146101065780637547c7a314610136575b600080fd5b6100b6610216565b6040516100c39190610a9c565b60405180910390f35b6100e660048036038101906100e19190610b21565b6102a4565b6040516100f39190610b67565b60405180910390f35b6101046102bc565b005b610120600480360381019061011b9190610b21565b6104a6565b60405161012d9190610b9d565b60405180910390f35b610150600480360381019061014b9190610be4565b6104c6565b005b61015a61076a565b6040516101679190610c20565b60405180910390f35b610178610790565b005b610182610958565b60405161018f9190610c9a565b60405180910390f35b6101b260048036038101906101ad9190610b21565b61097e565b6040516101bf9190610b9d565b60405180910390f35b6101d061099e565b6040516101dd9190610cd6565b60405180910390f35b61020060048036038101906101fb9190610be4565b6109c4565b60405161020d9190610c20565b60405180910390f35b6000805461022390610d20565b80601f016020809104026020016040519081016040528092919081815260200182805461024f90610d20565b801561029c5780601f106102715761010080835404028352916020019161029c565b820191906000526020600020905b81548152906001019060200180831161027f57829003601f168201915b505050505081565b60056020528060005260406000206000915090505481565b3373ffffffffffffffffffffffffffffffffffffffff16600160009054906101000a900473ffffffffffffffffffffffffffffffffffffffff1673ffffffffffffffffffffffffffffffffffffffff161461034c576040517f08c379a000000000000000000000000000000000000000000000000000000000815260040161034390610d9e565b60405180910390fd5b60005b6004805490508110156104a35760006004828154811061037257610371610dbe565b5b9060005260206000200160009054906101000a900473ffffffffffffffffffffffffffffffffffffffff1690506000600560008373ffffffffffffffffffffffffffffffffffffffff1673ffffffffffffffffffffffffffffffffffffffff168152602001908152602001600020549050600081111561048e57600260009054906101000a900473ffffffffffffffffffffffffffffffffffffffff1673ffffffffffffffffffffffffffffffffffffffff1663a9059cbb83836040518363ffffffff1660e01b8152600401610449929190610ded565b6020604051808303816000875af1158015610468573d6000803e3d6000fd5b505050506040513d601f19601f8201168201806040525081019061048c9190610e42565b505b5050808061049b90610e9e565b91505061034f565b50565b60076020528060005260406000206000915054906101000a900460ff1681565b60008111610509576040517f08c379a000000000000000000000000000000000000000000000000000000000815260040161050090610f59565b60405180910390fd5b600360009054906101000a900473ffffffffffffffffffffffffffffffffffffffff1673ffffffffffffffffffffffffffffffffffffffff166323b872dd3330846040518463ffffffff1660e01b815260040161056893929190610f79565b6020604051808303816000875af1158015610587573d6000803e3d6000fd5b505050506040513d601f19601f820116820180604052508101906105ab9190610e42565b5080600560003373ffffffffffffffffffffffffffffffffffffffff1673ffffffffffffffffffffffffffffffffffffffff16815260200190815260200160002060008282546105fb9190610fb0565b92505081905550600660003373ffffffffffffffffffffffffffffffffffffffff1673ffffffffffffffffffffffffffffffffffffffff16815260200190815260200160002060009054906101000a900460ff166106b7576004339080600181540180825580915050600190039060005260206000200160009091909190916101000a81548173ffffffffffffffffffffffffffffffffffffffff021916908373ffffffffffffffffffffffffffffffffffffffff1602179055505b6001600760003373ffffffffffffffffffffffffffffffffffffffff1673ffffffffffffffffffffffffffffffffffffffff16815260200190815260200160002060006101000a81548160ff0219169083151502179055506001600660003373ffffffffffffffffffffffffffffffffffffffff1673ffffffffffffffffffffffffffffffffffffffff16815260200190815260200160002060006101000a81548160ff02191690831515021790555050565b600160009054906101000a900473ffffffffffffffffffffffffffffffffffffffff1681565b6000600560003373ffffffffffffffffffffffffffffffffffffffff1673ffffffffffffffffffffffffffffffffffffffff16815260200190815260200160002054905060008111610817576040517f08c379a000000000000000000000000000000000000000000000000000000000815260040161080e90611052565b60405180910390fd5b600360009054906101000a900473ffffffffffffffffffffffffffffffffffffffff1673ffffffffffffffffffffffffffffffffffffffff1663a9059cbb33836040518363ffffffff1660e01b8152600401610874929190610ded565b6020604051808303816000875af1158015610893573d6000803e3d6000fd5b505050506040513d601f19601f820116820180604052508101906108b79190610e42565b506000600560003373ffffffffffffffffffffffffffffffffffffffff1673ffffffffffffffffffffffffffffffffffffffff168152602001908152602001600020819055506000600760003373ffffffffffffffffffffffffffffffffffffffff1673ffffffffffffffffffffffffffffffffffffffff16815260200190815260200160002060006101000a81548160ff02191690831515021790555050565b600360009054906101000a900473ffffffffffffffffffffffffffffffffffffffff1681565b60066020528060005260406000206000915054906101000a900460ff1681565b600260009054906101000a900473ffffffffffffffffffffffffffffffffffffffff1681565b600481815481106109d457600080fd5b906000526020600020016000915054906101000a900473ffffffffffffffffffffffffffffffffffffffff1681565b600081519050919050565b600082825260208201905092915050565b60005b83811015610a3d578082015181840152602081019050610a22565b83811115610a4c576000848401525b50505050565b6000601f19601f8301169050919050565b6000610a6e82610a03565b610a788185610a0e565b9350610a88818560208601610a1f565b610a9181610a52565b840191505092915050565b60006020820190508181036000830152610ab68184610a63565b905092915050565b600080fd5b600073ffffffffffffffffffffffffffffffffffffffff82169050919050565b6000610aee82610ac3565b9050919050565b610afe81610ae3565b8114610b0957600080fd5b50565b600081359050610b1b81610af5565b92915050565b600060208284031215610b3757610b36610abe565b5b6000610b4584828501610b0c565b91505092915050565b6000819050919050565b610b6181610b4e565b82525050565b6000602082019050610b7c6000830184610b58565b92915050565b60008115159050919050565b610b9781610b82565b82525050565b6000602082019050610bb26000830184610b8e565b92915050565b610bc181610b4e565b8114610bcc57600080fd5b50565b600081359050610bde81610bb8565b92915050565b600060208284031215610bfa57610bf9610abe565b5b6000610c0884828501610bcf565b91505092915050565b610c1a81610ae3565b82525050565b6000602082019050610c356000830184610c11565b92915050565b6000819050919050565b6000610c60610c5b610c5684610ac3565b610c3b565b610ac3565b9050919050565b6000610c7282610c45565b9050919050565b6000610c8482610c67565b9050919050565b610c9481610c79565b82525050565b6000602082019050610caf6000830184610c8b565b92915050565b6000610cc082610c67565b9050919050565b610cd081610cb5565b82525050565b6000602082019050610ceb6000830184610cc7565b92915050565b7f4e487b7100000000000000000000000000000000000000000000000000000000600052602260045260246000fd5b60006002820490506001821680610d3857607f821691505b60208210811415610d4c57610d4b610cf1565b5b50919050565b7f43616c6c6572206973206e6f74204f776e657200000000000000000000000000600082015250565b6000610d88601383610a0e565b9150610d9382610d52565b602082019050919050565b60006020820190508181036000830152610db781610d7b565b9050919050565b7f4e487b7100000000000000000000000000000000000000000000000000000000600052603260045260246000fd5b6000604082019050610e026000830185610c11565b610e0f6020830184610b58565b9392505050565b610e1f81610b82565b8114610e2a57600080fd5b50565b600081519050610e3c81610e16565b92915050565b600060208284031215610e5857610e57610abe565b5b6000610e6684828501610e2d565b91505092915050565b7f4e487b7100000000000000000000000000000000000000000000000000000000600052601160045260246000fd5b6000610ea982610b4e565b91507fffffffffffffffffffffffffffffffffffffffffffffffffffffffffffffffff821415610edc57610edb610e6f565b5b600182019050919050565b7f416d6f756e742073686f756c642062652067726561746572207468616e207a6560008201527f726f000000000000000000000000000000000000000000000000000000000000602082015250565b6000610f43602283610a0e565b9150610f4e82610ee7565b604082019050919050565b60006020820190508181036000830152610f7281610f36565b9050919050565b6000606082019050610f8e6000830186610c11565b610f9b6020830185610c11565b610fa86040830184610b58565b949350505050565b6000610fbb82610b4e565b9150610fc683610b4e565b9250827fffffffffffffffffffffffffffffffffffffffffffffffffffffffffffffffff03821115610ffb57610ffa610e6f565b5b828201905092915050565b7f42616c616e63652063616e6e6f74206265205a65726f00000000000000000000600082015250565b600061103c601683610a0e565b915061104782611006565b602082019050919050565b6000602082019050818103600083015261106b8161102f565b905091905056fea264697066735822122042686600b83f2ba4cf792e3a730bedc8fb423e879f8e189e648ff7e553eb24fe64736f6c634300080a0033",
  "immutableReferences": {},
  "source": "// SPDX-License-Identifier: MIT\npragma solidity ^0.8.7;\n\nimport \"./DToken.sol\";\nimport \"./DaiToken.sol\";\n\n\ncontract TokenFarm {\n    string public name = \"D Token Farm\";\n    address public owner;\n    DToken public dToken;\n    DaiToken public daiToken;\n\n    address[] public stakers;\n    mapping(address => uint256) public stakingBalance;\n    mapping(address => bool) public hasStaked;\n    mapping(address => bool) public isStaking;\n\n    constructor(DToken _dToken, DaiToken _daiToken) public {\n        dToken = _dToken;\n        daiToken = _daiToken;\n        owner = msg.sender;\n    }\n\n    // 1. Stake Tokens (Deposit) function \n    function stakeTokens(uint256 _amount) public {\n        //require amount greater than 0\n        require(_amount > 0, \"Amount should be greater than zero\");\n        //Transfer Mock Dai Token to this contract for staking \n        daiToken.transferFrom(msg.sender, address(this), _amount);\n        //update staking balance\n        stakingBalance[msg.sender] += _amount;\n        \n        //Add user to stakers array only if they haven't staked already\n        if(!hasStaked[msg.sender]){\n            stakers.push(msg.sender);\n        }\n        // update staking status\n        isStaking[msg.sender] = true;\n        hasStaked[msg.sender] = true;\n    }\n\n    // 2. Issue Tokens if one person deposit one mDai token gets one dToken\n    function issueTokens() public {\n        require(owner == msg.sender, \"Caller is not Owner\");\n        //Issue tokens to all staker\n        for(uint256 i=0;i<stakers.length;i++){\n            address recipient = stakers[i];\n            uint256 balance = stakingBalance[recipient];\n            if(balance > 0){\n                dToken.transfer(recipient, balance);\n\n            }\n\n        }\n    }\n\n        // 3. Unstake or Withdraw Token\n        function unstakeTokens() public {\n\n            //Fetch staking balance \n            uint256 balance = stakingBalance[msg.sender];\n\n            require(balance > 0, \"Balance cannot be Zero\");\n\n            // Transfer Mock Dai tokens to this contracts for staking \n            daiToken.transfer(msg.sender,balance);\n            \n            //Reset staking Balance \n            stakingBalance[msg.sender] = 0;\n\n            //update staking status\n            isStaking[msg.sender] = false;\n\n\n        }\n\n    \n\n\n\n\n   \n}",
  "sourcePath": "/home/samresh/Documents/Defi_StakingApp/src/contracts/TokenFarm.sol",
  "compiler": {
    "name": "solc",
    "version": "0.8.10+commit.fc410830.Emscripten.clang"
  },
  "schemaVersion": "3.4.4",
  "updatedAt": "2022-08-03T11:19:55.164Z",
  "networkType": "ethereum",
  "devdoc": {
    "kind": "dev",
    "methods": {},
    "version": 1
  },
  "userdoc": {
    "kind": "user",
    "methods": {},
    "version": 1
  }
}